S019000070726F6475637420636F756E74657220342E7372656396
S11300000C942A000C9447000C9447000C9447006D
S11300100C9447000C9447000C9447000C94470040
S11300200C9447000C94A0000C9447000C944700D7
S11300300C9447000C9447000C9447000C94470020
S11300400C9447000C9447000C9447000C94470010
S11300500C94470011241FBECFE5D4E0DEBFCDBF12
S113006010E0A0E6B0E0E6E9F3E002C005900D92EE
S1130070A037B107D9F720E0A0E7B0E001C01D9296
S1130080A837B207E1F70E9427010C94C9010C9428
S11300900000F89490917700E1E7F0E08DEC989FF0
S11300A0912D11249695969596959083209177009D
S11300B0289F912D1124969596959695990F392FF1
S11300C0330F330F930F291B218390917600989F50
S11300D0912D1124969596959695928390917600FC
S11300E0989F812D1124869586958695880F282FB3
S11300F0220F220F820F981B9383789408958430E3
S1130100F0F492B39F6092BB90E0FC01EF58FF4F74
S1130110E081F0E0EF59FF4F208120952BBB42B3E3
S1130120FC01E559FF4F21E030E0C901008002C025
S1130130880F991F0A94E2F78095842382BB08955F
S11301401F920F920FB60F9211242F933F934F9348
S11301505F936F937F938F939F93AF93BF93EF932B
S1130160FF93809170000E947F00809170008F5FE8
S1130170837080937000FF91EF91BF91AF919F9135
S11301808F917F916F915F914F913F912F910F903C
S11301900FBE0F901F90189581E08093750082B375
S11301A08F7D82BB08951092750082B3806282BBFA
S11301B0089582B3806482BB089582B38F7B82BB2F
S11301C0089584B38E7F84BB85B3816085BB87B378
S11301D0807E87BB88B38F6188BB8FEF8ABB1BBAD5
S11301E081B38F6081BB82B3807F82BB81B3806225
S11301F081BB81B3806481BB0E94D3000E94DD0077
S113020082E083BF89B7816089BF7894089526B35B
S113021030E0082E02C0359527950A94E2F720FDB8
S113022012C0EFE2F5E73197F1F700C0000026B302
S113023030E0A90102C0559547958A95E2F740FD43
S113024004C081E0089580E0089580E008950E944C
S1130250E1000E94490080E00E9407018823A1F088
S1130260809177008F3530F4809177008B5F809395
S1130270770003C083E6809377000E94490080E002
S11302800E9407018111FBCF81E00E9407018823AE
S113029081F080917700882329F080917700815044
S11302A0809377000E94490081E00E940701811138
S11302B0FBCF82E00E940701882369F00E94D300EB
S11302C0109276000E94DD000E94490082E00E94A4
S11302D007018111FBCF83E00E940701882301F10C
S11302E080917700882351F081E0809360000E9420
S11302F049000E94DD000E94CC000DC00E94D9007C
S11303002FE788E391E0215080409040E1F700C05E
S113031000000E94DD0083E00E9407018111FBCFF1
S113032084E00E940701882339F00E94D30084E00E
S11303300E9407018111FBCF93B381E0292F217023
S113034090FF80E0C82F809175008823F1F08091A0
S113035060008130B9F4211115C080917600833694
S113036028F4809176008F5F8093760090917600D8
S113037080917700981720F00E94D9000E94D30042
S11303800E944900C093600066CF81E080936000C2
S109039062CFF894FFCFD8
S113039601C0F9A4B0999282F8809000010203008A
S9030000FC
